:020000040800F2
:1000000038510020650100082343000839360008F4
:1000100021430008110A000833790008000000009D
:100020000000000000000000000000003343000852
:10003000110C000800000000314300081D450008B5
:100040007F0100087F0100087F0100087F01000890
:100050007F0100087F0100087F0100087F01000880
:100060007F0100087F0100087F010008150A0008D1
:100070007F0100087F0100087F0100087F01000860
:100080007F0100087F0100087F0100087F01000850
:100090007F0100087F0100087F0100087F01000840
:1000A0007F0100087F0100087F0100087F01000830
:1000B0007F0100087F0100087F0100087F01000820
:1000C0007F0100087F0100087F0100087F01000810
:1000D0007F0100087F0100087F0100083D520008F1
:1000E0007F0100087F0100087F0100080000000078
:1000F0000000000000000000000000000000000000
:1001000000000000000000007F0100087F010008DF
:10011000E14F0008ED4F00087F0100087F01000853
:100120007F0100087F0100087F0100087F010008AF
:100130007F01000800000000000000007F010008AF
:100140007F0100087F0100087F01000825430008A7
:10015000DFF80CD000F00EFB00480047E5940008E3
:10016000385100200648804706480047FEE7FEE772
:10017000FEE7FEE7FEE7FEE7FEE7FEE7FEE7FEE757
:1001800095450008510100082DE9F05F0546002063
:1001900092469B4688460646814640241BE02846F8
:1001A00041464746224600F020F853465A46C01AB8
:1001B000914110D311461846224600F025FA2D1A17
:1001C00067EB01084F4622460120002100F01CFA8F
:1001D00017EB00094E41201EA4F10104DFDC484664
:1001E00031462A464346BDE8F09F202A04DB203AE8
:1001F00021FA02F00021704721FA02F3D040C2F147
:100200002002914008431946704740EA01039B07CA
:1002100003D009E008C9121F08C0042AFAD203E07B
:1002200011F8013B00F8013B521EF9D27047D2B2DF
:1002300001E000F8012B491EFBD270470022F6E7CF
:1002400010B513460A4604461946FFF7F0FF20464C
:1002500010BD80EA010210B502F00043400022D038
:100260004A001FD0010E01EB1261C0F35600C2F329
:10027000560240F4000042F40002A0FB02200004F9
:100280007F39140400D0401C50EA124001D44000D1
:10029000491EC2B20C0604EBD010401C4008802A54
:1002A00002D003E0002010BD20F00100002900DA98
:1002B0000020184310BD30B480EA010202F000456E
:1002C00030F0004221F0004013D090B1C30DD40DA6
:1002D000C2F31601C0F31600E41A41F4000140F421
:1002E00000027D34914201D3641C00E04900002CDF
:1002F00002DA30BC002070474FF400000023914226
:1003000001D3891A034340084FEA4101F7D151B1A3
:10031000914202D14FF0004105E002D24FF00101BD
:1003200001E06FF0010103EBC450284430BC00F041
:100330008CB92DE9FE4F804681EA0300C00F0C46C0
:10034000009021F0004123F00045B8EB0200A941E4
:1003500005D24046214690461C460B46024623F0F5
:100360000040104347D0270DC7F30A00C3F30A51DA
:100370000290401A019040286BDAC3F3130040F456
:10038000801B0098924620B10023D2EB030A63EB56
:100390000B0B01985946C0F14002504600F034F969
:1003A00006460D4650465946019A00F03CF910EBBE
:1003B00008006141002487EA115284EAE7731A4376
:1003C00040D0009A62B3019A012A4FEA075215DC25
:1003D000001B61EB02014FF0004202EA0752CDE937
:1003E0000042001C41F5801132462B4600F073F9A3
:1003F00003B0BDE8F08F40462146F9E7001B61EBF2
:100400000201001C41F5801300185B412018A2F581
:10041000001747EB030140EAD570B6196D4111E0B2
:100420006D084FEA360645EAC0754FEA0752001BD1
:1004300061EB0201001C41F5801149084FEA3000D0
:100440000019514132462B4603B0BDE8F04F00F091
:1004500033B90098012240000023D0EB020263EB85
:10046000E073009821464FEAE074B8EB000061EBBE
:100470000401E9E783F000435BE781F0004158E7BE
:100480002DE9FE4F81EA030404F0004421F000410D
:1004900000944FF0000B23F0004350EA01045ED0BB
:1004A00052EA03045BD0C3F30A54C1F30A552C4447
:1004B000A4F2F3340194A0FB0254C1F3130141F4FC
:1004C0008011C3F3130343F4801301FB024400FBC8
:1004D000034E840A970A44EA815447EA8357A4FBEF
:1004E000076802958D0A05FB07854FEA932C04FBEC
:1004F0000C542705029D4FEA065847EA1637B5EB1C
:1005000008056EEB070C870E920E47EA811742EA48
:100510008312A7FB0201B6EB0B0164EB00042B0D69
:1005200043EA0C335E1844EB1C50DA465146E7FBB5
:100530000201C5F313044FEA0B3343EA14534FEAA5
:100540000432019C43EA0603A4F10C040294009CCB
:10055000CDE900B400F0BFF803B0BDE8F08F002093
:100560000146F9E7C10F80EAE0700844CA07962304
:10057000002100F073B80EB5C10F80EAE0700844A6
:10058000CA07002140F233438DE80E000A460B46AD
:1005900000F0A1F803B000BD00F0004220F00040E0
:1005A000C10DC0F3160040F400007F2901DA0020DD
:1005B0007047962903DCC1F19601C84001E09639E5
:1005C0008840002AF4D04042704770B5C1F30A5207
:1005D00001F000450024C1F3130140F2FF3341F460
:1005E00080119A4201DA002070BD40F233439A42F2
:1005F000A2F2334203DC5242FFF7F7FD00E09040E5
:100600002C43F1D0404270BD202A04DB203A00FA8E
:1006100002F1002070479140C2F1200320FA03F359
:10062000194390407047202A06DBCB17203A41FA45
:1006300002F043EAE07306E041FA02F3D040C2F16F
:10064000200291400843194670470029A8BF70470F
:10065000401C490008BF20F00100704710B4B0FAF8
:1006600080FC00FA0CF050EA010404BF10BC704793
:1006700049B1CCF1200421FA04F411FA0CF118BFAD
:10068000012121430843A3EB0C01CB1D4FEA00617C
:100690004FEA102042BF002010BC704700EBC3504F
:1006A00010440029A4BF10BC7047401C490008BF7B
:1006B00020F0010010BC704710B5141E73F1000447
:1006C00008DA401C41F1000192185B411A4301D144
:1006D00020F0010010BD2DE9F04D92469B4611B16E
:1006E000B1FA81F202E0B0FA80F220329046FFF7D0
:1006F0008BFF04460F4640EA0A0041EA0B015346CD
:100700005A46084313D0114653EA010019D0C8F1E4
:1007100040025046FFF769FD05460E4650465946D1
:100720004246FFF771FF084305D0012004E0204650
:100730003946BDE8F08D0020054346EAE0762C43BB
:1007400037430A986305E40AA0EB08000022FD0A7B
:1007500044EA47540A3002D500200146E9E7010582
:1007600010196941DDE9084500196941BDE8F04DFE
:10077000A2E70000064C074D06E0E06840F00103E8
:1007800094E8070098471034AC42F6D3FFF7E4FC36
:10079000749F0008949F00082DE9F84FDFF8088146
:1007A000DFF80CA1DFF804E1B8F800400AF17805A1
:1007B00000210AF1840B05F1180900BF01EB810348
:1007C0000AEB83003EF8116020F814603AF8232009
:1007D0004688C788324486883E443244068932447B
:1007E0004689324486893244C6893244068A408A20
:1007F000324402440A20B2FBF0F080B225F8110026
:100800002BF8110039F813604A46871B052F2CDCA2
:10081000371A052F29DC02EB430700977F88A0EBEE
:10082000070CBCF1050F20DC3F1A052F1DDC009FD3
:10083000BF88A0EB070CBCF1050F16DC3F1A052F93
:1008400013DC009FFF88A0EB070CBCF1050F0CDC4C
:100850003F1A052F09DC009F3F89A0EB070CBCF174
:10086000050F02DC3F1A052F0CDD02EB43067788EB
:1008700029F81370B2887280F288B2803289F280CF
:10088000308101E025F81160491C89B2062995D311
:10089000641CA1B2A8F800100A2902D10021A8F80E
:1008A0000010BDE8F88F000002000020900000203A
:1008B0001001002070B5044600688168C943C9076B
:1008C0001CD1816821F00101816001F051FA0546D7
:1008D0000FE000BF01F04CFA401B022809D9A06AC2
:1008E00040F01000A062E06A40F00100E0620120E8
:1008F00070BD20688068C043C007EBD0002070BD89
:1009000010B50146406A826A12F0500F05D0006AA5
:10091000026BBDE8104008461047816A41F400713F
:10092000816201688968C1F3424107290CD1017BCA
:1009300051B9816A21F480718162816AC90403D44A
:10094000816A41F00101816200F0C6FC10BD10B562
:10095000406A816A41F040018162C16A41F004014C
:10096000C16200F0BBFC10BD10B5406A00F0B5FCE0
:1009700010BD0000F8B500260446009600688168A6
:10098000C943C90728D0816841F00101816013483B
:1009900013490068B0FBF1F000E0401E0090002811
:1009A000FBD101F0E5F9054611E000BF01F0E0F9E7
:1009B000401B02280BD9A06A40F01000A062E06A38
:1009C00040F00100E06284F824600120F8BD206856
:1009D0008068C043C007E9D10020F8BD4C0000206A
:1009E00040420F0010B5084A0849002040F239344F
:1009F00032F8103063439B0A21F81030401C80B25B
:100A00000628F3D310BD00008400002090000020D1
:100A1000FEE70000014800F057BE0000CC000020B7
:100A200030B590F840500124AC40C56B6C60046850
:100A300063604368102B036803D099600068C2604C
:100A400030BD9A600068C16030BD00002DE9F04102
:100A50002948007801284CD1284800242F4D0470E3
:100A600027480470274804702748047027480470FA
:100A70002748047027480470274804702878012804
:100A800037D11F222649274800F082F9244E00273B
:100A9000394656F8272024A006F04CFF7F1C1F2F54
:100AA000F6DB1F490020963956F8202001EB800321
:100AB000170E9F71170CDF71170A1F72401C5A72B4
:100AC0001E28F1DBB06F00B90520020E01F87E2F61
:100AD000020C4A70020A8A70C87011494FF47A7386
:100AE00084229639174802F07DFA17492C700120AC
:100AF000C870BDE8F0810000190000201600002039
:100B00000C000020150000200F0000201000002025
:100B100013000020170000201800002014000020FF
:100B2000600B002000000108466C6173685F536130
:100B300076655F646174615B25645D203D2025649A
:100B4000200000000C0300201C00002010B5401EF7
:100B50000F49C0B20F4C51F82000A168884201DD56
:100B6000A06003E0E168884200DAE060D4E90210A6
:100B7000081A206108A006F0DDFE0BA0E16806F06F
:100B8000D9FE2169BDE810400BA006F0D3BE0000DD
:100B9000E80100201C000020D7EEB4F3D6B5CEAAA1
:100BA00025640D0A00000000D7EED0A1D6B5CEAA6C
:100BB00025640D0A00000000D4B2B6C8D6B5CEAA8E
:100BC00025640D0A0000000010B500224FEA020162
:100BD00000EB8203521CC3F880130F2AF8D30022C3
:100BE0004FF400738418521C84F81C119A42F9D3F4
:100BF0000170417001228270C0F8C0130276402358
:100C00008371417680F81C1380F81D23002010BDED
:100C1000704710B586B0044600F0A0FF0020012107
:100C200002940090CDE9031004A9684600F0F8FE94
:100C300006B010BD70470022AFF3008030B50E4BF8
:100C4000054601205C7A012C15D8587A00241C54E2
:100C5000587A03EB800045605D7A03F108002A545E
:100C6000587A421C5A72303008703A2048702F204F
:100C70008870CC70002030BD28110020064900206B
:100C8000C8610648016941F004010161016941F050
:100C90004001016170470000F01000200020024078
:100CA000064A0021D16106490A6942F002020A613E
:100CB0004861086940F0400008617047F01000206A
:100CC00000200240044B0022DA61044A136943F019
:100CD0000103136101807047F010002000200240E2
:100CE00014480022C168CB06134904D5CA6942F0F2
:100CF0000202CA611022C3685B0705D5CB6943F0C5
:100D00000103CB6142F00402C369DB0707D0CB6962
:100D100043F00403CB61C16921F00101C161A2F577
:100D20008071013901D0C2607047C16921F00101B1
:100D3000C161704700200240F010002070B50546E8
:100D400001F016F80646114C09E0681C07D025B1E1
:100D500001F00EF8801BA84201D9032070BDE068A5
:100D6000C007F2D1E068800601D52020E060E0688D
:100D7000C00605D4E069C00702D1E068400703D58A
:100D8000FFF7AEFF012070BD002070BD00200240C3
:100D900010B5002304E010C841F823405B1CDBB20F
:100DA0009342F8D310BD00002DE9F04116460F46DE
:100DB000054600240AE000BF57F8242000232946F6
:100DC000022000F08BFE641CE4B22D1DB442F3D36C
:100DD000BDE8F0812DE9FF5FDFF8DCB0DFF8DC80F3
:100DE000DFF8DCA0374DDFF8E090002498F8001021
:100DF000012902D002291DD044E034483AF81410E9
:100E000050F82400081A324951F824104843FFF7DB
:100E1000B2FB304A304BFFF733FB07460E465BF818
:100E20002400FFF7A8FB3A463346FFF782FAFFF7A4
:100E3000CCFB30E02548264950F8240003903AF8CE
:100E4000147051F82460C01B7043FFF794FB214AD3
:100E5000214BFFF715FBCDE900015BF82400029060
:100E6000FFF789FBDDE90023FFF763FAFFF7ADFB2E
:100E700045F82400CDE90076DDE90223014617A0FC
:100E800006F058FD98F80000032802D055F8240019
:100E900003E03AF8140045F8240009EB8401020E3F
:100EA0008A74020CCA74020A641C0A75E4B248759A
:100EB000062C9BD3BDE8FF9F640300201C0000208C
:100EC00088010020E80100209E0A0020DC030020A9
:100ED000AC0300208DEDB5A0F7C6B03E2564203DE3
:100EE000202564202B2028282564202D20256429F6
:100EF0002A2564290D0A00002DE9F05F7448007866
:100F000001287DD1734C744E4FF001086078D0B940
:100F10007169A6F18E000A0E82710A0CC2710A0A6A
:100F200002724172B1694FF47A730A0E82720A0C2E
:100F3000C2720A0A0273417301461022674802F026
:100F400051F884F80180664800256B4F05706548AC
:100F5000DFF8ACA1DFF8AC9105706348DFF8A8B109
:100F60000570624805706248057062480570A5709A
:100F7000E57039781120614C012957D0022953D1ED
:100F8000207120206071A57184F8078064230A22F3
:100F90002146524802F026F89AF80010D9F80720A6
:100FA000481EC7B212BA99F80A0022F0FF02DFF811
:100FB0005C91024309EB8100D04640F8042C2A22C0
:100FC00045495846FFF7E4FE98F8001009EB810008
:100FD000C7EBC70106EB810150F8040C8861584645
:100FE000FFF717FE2A223C495846FFF7DDFE00F0C6
:100FF0006BFD4FF4FA76304600F000FD022000E071
:1010000012E0E07164230A222146344801F0EAFF2D
:10101000304600F0F3FCE57164230A2221462F4894
:1010200001F0E0FF34480570BDE8F09F20711F20FB
:101030006071A57184F8078064230A222F4927482C
:1010400001F0D0FF9AF80000D9F80720411E01F006
:10105000FF0899F80A1012BADFF8B49022F0FF02E4
:101060000A4309EB80001C4940F8042C2A22584608
:10107000FFF78EFE9AF8001009EB8100C8EBC8015B
:1010800006EB810150F8040C48615846FFF7C1FD9A
:101090002A2211495846FFF787FE00F015FD4FF44C
:1010A000FA76304600F0AAFC0220E07164230A229E
:1010B00012490A4801F096FF304600F09FFCE571A6
:1010C00064230A220D49054801F08CFF3D70ABE70F
:1010D000160000201C000020DC0B00200C03002068
:1010E000190000200C000020150000200F00002037
:1010F000100000201300002018000020880A0020A3
:1011000017000020000200200008010894030020BE
:101110007C030020F8B500250446009590F82400D3
:10112000012808D0012084F824002046FFF7C2FBE4
:10113000060002D04BE00220F8BDA06A20F48850DF
:1011400040F00200A062022001F096F822490968EE
:10115000B1FBF0F0400000E0401E00900028FBD101
:101160002046FFF707FC2068816841F00801816094
:1011700000F0FEFD074604E000F0FAFDC01B0A285F
:1011800011D8206880680007F6D42068816841F093
:101190000401816000F0ECFD07460EE000F0E8FD80
:1011A000C01B0A2809D9A06A20F0020040F01000F4
:1011B000A06284F824500120F8BD206880684007B0
:1011C000ECD4A06A20F0020040F00100A06284F894
:1011D00024503046F8BD00004C000020F8B5002433
:1011E000009490F824202546012A12D0012280F88C
:1011F00024204A681F23072A0DD20668776B521EE7
:1012000002EB820293409F430B6893401F43776336
:1012100019E00220F8BD06680D2A0AD2376BD21FEA
:1012200002EB820293409F430B6893401F43376356
:1012300009E0F76A0D3A02EB820293409F430B6884
:1012400093401F43F7620A68072306680A2A0AD3F5
:10125000F7680A3A02EB420293409F438B6893403F
:101260001F43F76008E0376902EB420293409F4357
:101270008B6893401F4337610A68102A01D0112AF6
:1012800020D1124B02689A4217D193681B0219D4DD
:10129000936843F4000393600968102912D10C4944
:1012A0000C4A0968B1FBF2F101EB8101490000E051
:1012B000491E00910029FBD104E0816A41F0200120
:1012C0008162012480F824502046F8BD00240140AA
:1012D0004C00002040420F007047704770470000EC
:1012E0002DE9F0414FF0000704003D467ED0A06A92
:1012F000002628B9E66284F82460204600F07EF8D3
:101300002046FFF7D7FAA16A01F01001014304D08B
:10131000A06A40F01000A06268E0A16A21F4885140
:1013200041F00201A1626268E169237B0A4347EA56
:1013300043010A43A1684FF48077B94208D00129DC
:1013400006D0002194F814C0BCF1010F02D00AE0CD
:101350003946F7E7F3B1A36A43F02003A362E36AD7
:1013600043F00103E3622368D3F804C02CF4694C12
:101370004CEA010CC3F804C023689968DFF870C018
:1013800001EA0C0111439960A168B9420BD001290F
:1013900009D00CE0DFF85CC0A3690CEB43330B43CE
:1013A00043F40061DFE7218A0D05A5F5801521686A
:1013B000CB6A23F470032B43CB62216889680E4B00
:1013C0001940914208D1E662A16A21F0020141F080
:1013D0000101A162BDE8F081A06A20F0020040F0A6
:1013E0001000A062E06A40F00100E0620120F1E735
:1013F000FDF7E1FF00E0FFFFFE0E1FFF70B586B0B6
:1014000000250646009501950295039500681A4946
:1014100088422ED11949886940F400708861886932
:1014200000F400700490886940F0040088618869C5
:10143000694600F004000490F3200090032001901E
:101440000F4800F09FFB104C0E48C4E900058020B7
:10145000C4E9025080002061400060612020C4E99E
:101460000605204600F054FA08B1FFF7E3FB3462AA
:10147000666206B070BD000000240140001002400A
:101480000008014008000240CC0000202DE9F04790
:10149000894604463B4900683B4F0E1D90468842F2
:1014A00001D0B84207D1306810F4702F03D0012565
:1014B0002846BDE8F08794F8240001280CD00120CC
:1014C00084F824002046FFF755FA05004FF000008D
:1014D00004D084F82400EBE70220EAE7A16A40F692
:1014E0000162914341F48071A1622168B94218D12F
:1014F000326812F4702F14D0A16A41F48011A162F5
:101500003168490505D5A16A21F4005141F48051A3
:10151000A162A16AC9040AD5E16A21F00601E1626B
:1015200006E0A26A22F48012A2624968E9E7E0625A
:1015300084F82400216A15488862216A1448C86228
:10154000216A1448086321686FF00200086020686F
:10155000816841F480718160216843464A464C317C
:10156000206A00F013FA20688168C1F3424107291C
:10157000816803D041F48011816099E741F4A001B2
:10158000FAE700000024014000280140010900089A
:10159000690900084F0900082DE9F05F90F8211053
:1015A0000024022903D004218163012485E001681D
:1015B0000A6822F00E020A6001680A6822F001023D
:1015C0000A603F4E3E4FB215DFF8F4C0DFF8F090EE
:1015D000DFF8ECA0DFF8E8B0DFF8E4E00168783F7E
:1015E00013011502ACF1640CA9F15009AAF13C0AEF
:1015F000ABF1280BAEF1140E4FF48018B14227D98D
:10160000B9420ED0614512D049451DD0514518D080
:10161000594518D0714501D1424615E0294EB142D5
:1016200001D1012210E0274E1436B14201D110221F
:101630000AE0244E2836B14206D0224A3C3291427A
:1016400001D11A4600E02A461E49091F0A602BE014
:10165000B94213D0614517D0494522D051451DD01C
:1016600059451DD0714501D142461AE0B14202D11F
:101670004FF0807215E0134EB14201D1012210E00B
:10168000104E1436B14201D110220AE00D4E283618
:10169000B14206D00B4A3C32914201D11A4600E0D9
:1016A0002A46074980394A60012180F8211000212B
:1016B00080F82010416B01B188472046BDE8F09FBB
:1016C00080000240080402402DE9F05FC16B0A6807
:1016D00001680B68046C4FF0040808FA04F8844DA4
:1016E000844E854FDFF814C2DFF81492DFF814A29D
:1016F000DFF814B2DFF814E218EA020F65D05FEAEF
:10170000437862D50A68920603D40A6822F004027C
:101710000A60DFF8F0814FF48062016808F1140874
:1017200013011402414524D9A9420DD0B1420FD072
:10173000B9421AD0614515D0494515D0514501D15E
:10174000120312E0594501D104220EE0714501D186
:1017500040220AE06D4D1435A94206D06B4A28326A
:10176000914201D11A4600E022466749091F0A60EA
:1017700029E0A94213D0B14215D0B94220D0614529
:101780001BD049451BD0514502D14FF4800217E0D0
:10179000414502D14FF0806212E0594501D1042247
:1017A0000EE0714501D140220AE0584D1435A9429E
:1017B00006D0564A2832914201D11A4600E022460C
:1017C0004B4908394A60C16A71E04FF0020808FAD3
:1017D00004F818EA020F70D05FEA83786DD50A68C2
:1017E000920606D40A6822F00A020A60012180F8F3
:1017F0002110DFF810814FF40072016808F114081D
:1018000013011402414524D9A9420DD0B1420FD091
:10181000B9421AD0614515D0494515D0514501D17D
:10182000120312E0594501D102220EE0714501D1A7
:1018300020220AE0354D1435A94206D0334A283219
:10184000914201D11A4600E022462F49091F0A6041
:1018500029E0A94213D0B14215D0B94220D0614548
:101860001BD049451BD0514502D14FF4001217E05F
:10187000414502D14FF0007212E0594501D10222D8
:101880000EE0714501D120220AE0204D1435A94215
:1018900006D01E4A2832914201D11A4600E0224663
:1018A000134908394A60002180F82010816A002914
:1018B0001CD0BDE8F05F0847FFE70825A5401542AA
:1018C00014D01A0712D50A6822F00E020A6090F8A6
:1018D0004020C36B012101FA02F25A60816380F853
:1018E0002110002180F82010016BE0E7BDE8F09F97
:1018F000080002401C000240300002404400024048
:10190000580002406C000240080402401C040240DF
:1019100030B560B11A4B026814219A4209D2194BB2
:101920001344B3FBF1F18900016417490AE0012077
:1019300030BD134B5B421344B3FBF1F189000164EA
:101940000F490839C163022180F82110136843F65A
:10195000F0718B43F0E901142143D0E902452C4397
:101960002143046921434469214384692143194384
:10197000116000214163012242770177084630BDA2
:1019800008040240F8FFFDBF0000024070B50446A5
:1019900090F82000002501280CD0012084F82000B8
:1019A00094F821600020012E06D084F82000022542
:1019B000284670BD022070BD022684F82160A06315
:1019C0002068066826F0010606602046FFF728F822
:1019D000E06A00282068016802D041F00E0106E0AC
:1019E00021F0040101602068016841F00A010160F2
:1019F0002068016841F001010160D9E770B5044633
:101A000000F0B6F90546601C02D004480078044492
:101A100000F0AEF9401BA042FAD370BD4000002098
:101A20002DE9F047054626480F460126017E01298B
:101A30000FD00121814601762868DFF888804CF2BA
:101A40005034022808D0A2462046FFF777F9A8B103
:101A500031E00220BDE8F0872046FFF76FF908BBB0
:101A60000120FFF70BF92046FFF768F9D8F81010AE
:101A7000064621F00401C8F810101CE04FF0FF30BA
:101A80003860AC6811E02046FFF70AF95046FFF7CE
:101A900055F9D8F81010060021F00201C8F810100E
:101AA00001D03C6007E004F50064D5E9020100EBD9
:101AB000C120A042E7D8002189F818103046C9E7B4
:101AC000F0100020002002400348016941F080012D
:101AD0000161002070470000002002402DE9F05F06
:101AE00007461C4888460024017E15461E460129EB
:101AF00009D00121814601764CF2503A5046FFF759
:101B00001DF918B122E00220BDE8F09F012F02D09C
:101B1000022F00D00427D346DFF83CA0220128463C
:101B20003146FEF762FB81B208EB4400FFF7CAF8CA
:101B30005846FFF703F9DAF8102022F00102CAF83C
:101B4000102018B9641CE4B2BC42E7D3002289F823
:101B50001820D9E7F010002000200240064900209C
:101B60000A69120607D5054A4A60054A4A600969AA
:101B7000090600D501207047002002402301674577
:101B8000AB89EFCD2DE9F84FDFF8B891002409F1CA
:101B9000040A0AF1040B23460F270BF1040EC9E0D7
:101BA0000125A5402A40AA427DD1674ED1F804C044
:101BB000ACEB0608B44532D014DCBCF1030F3AD0CC
:101BC00009DCBCF1000F2AD0BCF1010F1CD0BCF124
:101BD000020F31D11DE0BCF1110F17D0BCF1120F73
:101BE0002AD119E0B8F5881F19D006DCB8F5803F76
:101BF00015D0B8F5801F1FD111E0B8F5001F0ED029
:101C0000B8F5041F18D10AE0CB6815E0CB681B1D9E
:101C100012E0CB6808330FE0CB680C330CE08B6824
:101C20002BB1012B4FF0080303D0456104E00423DE
:101C300002E0056100E00023FF2A01D8064601E02A
:101C400000F104064FEA840501D9A5F12005D6F874
:101C5000008007FA05FC28EA0C0803FA05F548EAB3
:101C60000508C6F800804D68ED0062D5374DAE69B5
:101C700046F00106AE61AD6924F0030605F00105EA
:101C80000095334D06EB050CDCF80850A607360F1F
:101C900007FA06F825EA0805DFF8B880404503D1C1
:101CA0004FF0000817E044E0DFF8AC80404502D177
:101CB0004FF001080FE0DFF8A480404502D14FF05B
:101CC000020808E0DFF89880404502D14FF0030891
:101CD00001E04FF0040808FA06F848EA0508CCF8D5
:101CE00008804D68D9F80060ED034D4601D51643D4
:101CF00000E096432E604D68DAF80060AD0355466B
:101D000001D5164300E096432E604D68DBF8006075
:101D1000ED025D4601D5164300E096432E604D6806
:101D2000DEF80060AD02754601D5164300E096432B
:101D30002E60641C0D682A46E5407FF431AFBDE893
:101D4000F88F000000040140000011100010024054
:101D50000000014000080140000C0140001001405B
:101D6000001401400AB1016170470904FBE700005B
:101D7000014880687047000040000020D0F8C00291
:101D800003F011BED0F8C00203F017BE006805F0E2
:101D900075BB006805F076BB01EB810100EBC1006B
:101DA00090F85C00704701EB810100EBC100C06C52
:101DB000704710B5044690F8B802012809D00120F8
:101DC00084F8B802206805F068FB002084F8B802A7
:101DD00010BD022010BD2DE9FE430546DDE90B7064
:101DE00095F8B842DDF828C0012C1CD001EB810425
:101DF0004FF0010905EBC40485F8B892002684F879
:101E00003D6084F83830A4F8400084F8391084F834
:101E10003F7002F07F0884F83A805FEA026805D5D7
:101E200084F83B9004E00220BDE8FE8384F83B6028
:101E300084F83CC0CDF800C0CDE90170286805F0F9
:101E40008DFB85F8B862EFE770472DE9F00301EBF1
:101E50008104DDE906C9DDE9087500EBC40402264A
:101E600084F83B2084F83F30BCF1000F0AD084F89E
:101E7000426000256BB1012B2DD0022B12D0032B19
:101E800016D10FE04FF0030884F8428084F83D50EB
:101E9000EFE7BCF1010F0BD152B9CFB9012284F8A1
:101EA000512003E0A2B194F85020A2B184F842601E
:101EB000C4E9119784F85C50E56484F8391084F81B
:101EC0005D5004F138010068BDE8F00305F0B6BBD1
:101ED00094F85120E9E784F84250E9E72DE9F04110
:101EE00004460068064605F0D4FA01287ED1206831
:101EF00005F08DFC002879D0206805F088FC800270
:101F000003D521684FF400104861206805F07FFC7C
:101F1000C00203D521684FF480104861206805F0A5
:101F200076FC400103D521684FF08060486120684D
:101F300005F06DFC800702D5216802204861206809
:101F400005F065FC80000ED521684FF00050486117
:101F5000D6F84004C00706D12046FFF713FF012141
:101F6000206805F039FC206805F051FCC00102D55D
:101F7000204601F0DFFA206805F049FC000705D58E
:101F8000204600F0A4F8216808204861206805F088
:101F90003EFC800123D5206805F04CFB0746002558
:101FA0004FF0010814E000BF05F00F0108FA01F03E
:101FB00038420CD006EB4510D0F80005E9B2000419
:101FC000204602D501F06CF801E001F099F96D1C92
:101FD000A068A842E8D821684FF0007048612068E6
:101FE00005F015FCC043C0060ED400E00CE02068EC
:101FF000816921F010018161204601F0E5FA206835
:10200000816941F010018161BDE8F08170B58AB04D
:10201000040005D094F8B9022568002618B107E03D
:1020200001200AB070BD84F8B862204600F028F89C
:10203000032084F8B902E86BC00500D4266120684B
:1020400005F0D8F904F1100128220D466846FEF784
:10205000DCF894E80F0005F085F90121206805F00F
:1020600001FC282229466846FEF7CFF894E80F00C5
:1020700005F068FB012084F8B9020020D1E70000D8
:1020800008B50068B0F1A04F12D10A48416941F487
:10209000805141614069002200F480500090052188
:1020A000432000F0B7F8BDE80840432000F0A5B891
:1020B00008BD000000100240D0F8C00203F004BDCB
:1020C000D0F8C00203F004BD006805F0B2BBD0F840
:1020D000C00203F0B7BC10B5044690F8B80201285E
:1020E0000DD0012084F8B802206805F09FF9012185
:1020F000206805F085F9002084F8B80210BD0220A0
:1021000010BD10B5044690F8B802012809D001208E
:1021100084F8B802206805F0BDFB002084F8B802FE
:1021200010BD022010BD00000248816802781144F1
:102130008160704740000020074810B5016841F0F9
:1021400010010160032000F085F8002000F006F87F
:1021500000F024F8002010BD0020024070B50D4DA5
:1021600004464FF47A712878B1FBF0F00A49096807
:10217000B1FBF0F000F0E8FC48B9102C07D20022C7
:102180002146501E00F046F800206C6070BD012012
:1021900070BD0000400000204C0000200C4808B535
:1021A000816941F001018161816901F001010091C2
:1021B000C16941F08051C161C06900F08050009058
:1021C0000448416821F0E06141F08061416008BD50
:1021D000001002400000014000280DDB00F01F024B
:1021E000012191404009800000F1E020C0F88011F9
:1021F000BFF34F8FBFF36F8F7047002809DB00F0EC
:102200001F02012191404009800000F1E020C0F848
:1022100000117047F0B40E4B1B680C46C3F3022349
:10222000C3F10705042D00D90425191D072901D282
:10223000002300E0DB1E012606FA05F1491E2140BD
:1022400099409E40761E16403143F0BC05F082BB9B
:102250000CED00E0064900F0070208684FF6FF03A6
:10226000184040EA0220034A10430860704700000B
:102270000CED00E00000FA0530B543A401461DCC8A
:1022800089B004AD85E81D0043A41DCC8DE81D0078
:102290000020454B454C042941D00BDC012959D085
:1022A00002293AD100F0F0F96168C1F38131491C8B
:1022B000490030E0082948D010292ED162682168F1
:1022C000C9012AD504A8C2F38341415CD0031BD5C0
:1022D000E06AE26A00F00F001DF80000D2030AD5A0
:1022E000E26AC2F30315E26A6D1CB3FBF5F3C2F3B5
:1022F0000322921C5343B3FBF0F09DF81D2048438A
:102300008A4203D1400801E02948484361684902F4
:1023100003D440000321B0FBF1F009B030BDE16A05
:10232000890314E000F0C0F9F7E72168C900F4D58B
:10233000E06AE16AC0F30310401CB3FBF0F0C1F3A4
:102340000331891C48434000E7E7E16A490300295B
:10235000EBDBE7E7226AC2F30121012903D19207EF
:1023600001D5C803D9E7022905D1626A920702D5CF
:1023700049F64040D1E70329CFD121688903CCD564
:102380004FF22440C9E700000000040506070809D1
:1023900000000000000D000001020304050607080C
:1023A000090A0B0C0D0E0F1000127A0000100240EB
:1023B00000093D002DE9F843044600785B4DC00755
:1023C0004FF0010951D0E8690026C00008D4E8693F
:1023D00040F08050E861E869012600F080500090EC
:1023E00053480168C90512D40168804641F48071E0
:1023F0000160FFF7BDFC074605E000BFFFF7B8FC32
:10240000C01B642877D8D8F80000C005F6D5286A24
:1024100010F440701ED0A18801F44071814219D09F
:10242000286A444920F44070C1F8009000220A60F4
:102430002862C0070ED0FFF79BFC074641F28838A0
:1024400005E000BFFFF794FCC11B414553D8286A43
:102450008007F7D5286A616820F440700843286235
:102460001EB1E86920F08050E8612078800705D52A
:102470006868A16820F440400843686020784007FD
:1024800005D5E86AE16820F400300843E862207866
:10249000000705D5E86A216920F480200843E86236
:1024A000E86A800302D4E86A400333D52868C00094
:1024B00028D42868400105D5E86AA16900F0F00039
:1024C000884225D1E86AA16920F0F0000843E8625B
:1024D000E86A616920F470400843E8621649C1F86F
:1024E0007090FFF745FC064608E004E0FFF740FC6B
:1024F000801B642802D90320BDE8F8832868800087
:10250000F4D507E0E86A616900F47040884201D0C0
:102510000120F1E72078C00605D56868E16920F45C
:102520008000084368600020E6E7000000100240D9
:102530000070004040044242000042422DE9F04752
:102540000F46050061D0434E306800F00700B842E6
:1025500009D2306820F0070038433060306800F05E
:102560000700B84251D128683B4C810712D540077B
:1025700003D5606840F4E06060602878000703D508
:10258000606840F4605060606068A96820F0F00006
:10259000084360602878C00728D06868012810D0F8
:1025A0002168022810D0890700292EDA616821F0FD
:1025B000030101436160FFF7DBFB804641F288398C
:1025C0000DE021688903EFE78901EDE7FFF7D0FB14
:1025D000A0EB0801494502D90320BDE8F0876068F7
:1025E000696800F00C00B0EB810FEFD1306800F0AB
:1025F0000700B8420BD9306820F00700384330603C
:10260000306800F00700B84201D00120E5E72878E3
:10261000400705D56068E96820F4E0600843606021
:102620002878000706D56068296920F4605040EAE0
:10263000C100606000F038F86168084AC1F3031116
:10264000515CC8400649086006480068FFF786FDEF
:102650000020C2E70020024000100240CA99000892
:102660004C000020440000200448054900684968E7
:10267000044AC1F30221515CC84070474C0000205D
:1026800000100240DA9900080448054900684968CA
:10269000044AC1F3C221515CC84070474C0000207D
:1026A00000100240DA990008F0B523A289B00FCAE1
:1026B00004AC84E80F0024A10FC98DE80F0026495F
:1026C0004A68264802F00C03042B2FD0082B2DD18A
:1026D00004A8C2F38343C45CD00329D5C86A00F0C0
:1026E0000F001DF80020C86AC00316D5C86AC96A61
:1026F000C0F30310C1F30321401C891CA0FB02237B
:10270000A1FB0416154F0025A1FB070C06FB07C60D
:1027100001FB0561FDF738FD03E010486043B0FBA5
:10272000F2F09DF81D10A14200D1400809B0F0BDA3
:102730000B486043FAE7000000000405060708099B
:1027400000000000000D0000010203040506070858
:10275000090A0B0C0D0E0F100010024000127A0037
:1027600000093D002DE9F84F040070D02078F14DAC
:10277000C00749D06868C0F38100012807D06868A5
:10278000C0F38100022809D16868C00306D5286813
:10279000800339D5A0680028E7D035E0A068B0F5FF
:1027A000803F0BD010B1B0F5A02F11D0286820F4D5
:1027B00080302860286820F4802002E0286840F4F7
:1027C00080302860A06890B1FFF7D2FA06460AE090
:1027D000286840F480202860F0E700BFFFF7C8FABF
:1027E000801B642876D828688003F7D50CE0FFF7B3
:1027F000BFFA064605E000BFFFF7BAFA801B64285F
:10280000F0D828688003F7D42078CB4E80074FF0AB
:1028100001094FF000073AD5686810F00C0F07D097
:102820006868C0F38100022809D16868C00306D433
:102830002868800715D56069012808D111E0606912
:10284000B8B1C6F80090FFF793FA804606E042E17F
:10285000FFF78EFAA0EB08000228C3D8286880078B
:10286000F6D52868A16920F0F80040EAC100286088
:102870000DE03760FFF77CFA804605E0FFF778FA55
:10288000A0EB08000228ADD828688007F6D420788D
:1028900000072ED5A948E169E9B1C0F80090FFF71B
:1028A00067FA804606E000BFFFF762FAA0EB080077
:1028B000022897D8686A8007F6D5A1484FF4FA51E4
:1028C0000068B0FBF1F0009000BF0098411E00913D
:1028D000FAD20EE0B0E00760FFF74AFA804605E062
:1028E000FFF746FAA0EB0800022889D8686A80073B
:1028F000F6D42078400763D5E8694FF00008C0009F
:1029000009D4E86940F08050E861E8694FF00108B7
:1029100000F0805000908B480168C90512D401680E
:10292000834641F480710160FFF722FA824605E098
:10293000FFF71EFAA0EB0A0064287DD8DBF8000040
:10294000C005F5D5206901280AD008B1052813D0A3
:10295000286A20F001002862286A20F0040002E0C2
:10296000286A40F001002862206941F2883B98B152
:10297000FFF7FEF982460BE0286A40F00400286267
:10298000EEE700BFFFF7F4F9A0EB0A01594553D871
:10299000286A8007F6D50CE0FFF7EAF9824605E0E1
:1029A000FFF7E6F9A0EB0A01594545D8286A8007E8
:1029B000F6D4B8F1000F03D0E86920F08050E86148
:1029C000E06AD0B36968C90307D56968C1F38101BA
:1029D000022902D1E96AC9037DD4022808D0E86A35
:1029E00020F48030E862B766FFF7C2F980463BE02A
:1029F0002868C00005D5E86A616B00F0F0008842E5
:102A000069D1B766FFF7B4F9804605E0FFF7B0F982
:102A1000A0EB0800642874D828680001F6D4E86A9E
:102A2000616B20F0F0000843E862E86A216B20F453
:102A300070600843E86201E063E018E0C6F868905F
:102A4000FFF796F9804605E0FFF792F9A0EB080042
:102A5000642856D828680001F6D508E0FFF788F901
:102A6000A0EB080064284CD828680001F6D4206A3E
:102A700090B36968C1F38101022949D00228376601
:102A800003D0FFF775F904463EE0FFF771F90746FA
:102A900005E000BFFFF76CF9C01B022831D8286899
:102AA0008001F7D4606AB0F5803F09D1E86A6168B7
:102AB0000843E862E86AE16820F00F000843E86232
:102AC000D4E909010843696821F474110843686076
:102AD000C6F8609001E028E029E0FFF749F90446D4
:102AE00005E000BFFFF744F9001B022809D8286859
:102AF0008001F7D51BE000BFFFF73AF9001B022861
:102B000002D90320BDE8F88F28688001F4D40EE0D4
:102B10000128F7D06868626A00F48031914204D1DC
:102B2000A16A00F47010884201D00120EAE7002079
:102B3000E8E70000001002400000424280044242E8
:102B40004C0000200070004010B5401EB0F1807FA6
:102B500001D3012010BD4FF0E02460610F21601708
:102B600004F0F8FE0020A06107202061002010BDC5
:102B70007047000070B5026804461068D168536958
:102B800010F00F0F51D003F0010501F4907635439A
:102B90005DD0C20705D0CA0503D5E26B42F0010241
:102BA000E263420705D5DA0703D0E26B42F0020286
:102BB000E263820705D5DA0703D0E26B42F0040234
:102BC000E263020705D5DA0703D0E26B42F00802A0
:102BD000E263E26B002A34D0800604D5880602D571
:102BE000204602F01FFA20684069E16BC0F38010B4
:102BF00001F008010143204624D002F005FA2068C4
:102C0000416949061AD5416921F040014161606B73
:102C1000A0B11B494163606BFEF7BEFC002810D0D9
:102C2000606B416BBDE87040084783060FD58B068B
:102C30000DD52046BDE8704002F0F4B92046FFF7FC
:102C400097FF70BDFFF794FF0020E06370BD03069F
:102C500006D50B0604D52046BDE8704002F08ABABE
:102C60004006F3D54806F1D5D168204621F0400151
:102C7000D160202184F8391000F011FA70BD0000F5
:102C8000F94F000870B5040004D094F8390000250D
:102C900010B106E0012070BD84F83850204600F0E5
:102CA00023F8242084F839002068C16821F40051F9
:102CB000C160204602F002FA2068016921F49041C7
:102CC00001612068416921F02A0141612068C168E1
:102CD00041F40051C160E563202084F8390084F894
:102CE0003A00002070BD0000F0B585B000240094CB
:102CF00001940294039407685A48584D5849022297
:102D00000323C6144FF4806CAF4224D1CD6945F43F
:102D10000025CD61CD6905F4002504958D6945F048
:102D200010058D618969054601F01001CDE9033177
:102D3000CDE900C26946FEF725FFCDE9006469468A
:102D400028460294FEF71EFF002201213420FFF7DF
:102D500061FA342030E0DFF810E1042577452FD107
:102D6000CE6946F48016CE61CE6906F480160496CC
:102D70008E6946F010068E618E6906F01006049684
:102D80008E6946F020068E618969039301F0200167
:102D90000491A902CDE900126946FEF7F3FECDE9E0
:102DA0000054694631480294FEF7ECFE00220321EC
:102DB0003520FFF72FFA3520FFF71FFA05B0F0BDD9
:102DC0002B48874220D1C86940F40030C861C869E7
:102DD00000F400300490886940F00400886188693C
:102DE000CDE9005200F00400CDE90330214D6946E1
:102DF0002846FEF7C7FE0820CDE9000469462846AC
:102E00000294FEF7BFFED9E71B488742D6D1C869B6
:102E100040F48020C861C86900F48020049088696B
:102E200040F0080088618869144D00F00800CDE981
:102E30000330CDE900C269462846FEF7A3FECDE97E
:102E40000064694628460294FEF79CFE0022022197
:102E50002720FFF7DFF92720AEE70000004C0040F5
:102E600000100240001001400050004000140140DA
:102E7000004400400008014000480040000C0140B0
:102E800090F83A30202B22D1F9B1F2B190F83830D5
:102E9000012B1CD081628285C2850021C163222260
:102EA00080F83A2080F838100168CA6842F48072CD
:102EB000CA6001684A6942F001024A610068C1685B
:102EC00041F02001C16000207047012070470220BE
:102ED000704700007CB500682D4901262D4C8842C2
:102EE00000D1A6702C49884251D161782B4D0A2916
:102EF00002D00B2908D003E029A004F01BFD617863
:102F000020782954401C41E028A004F013FD687883
:102F100001283AD1A878012837D127A004F00AFD6A
:102F20000A208DF800008DF801608DF80260297983
:102F30002548012200EB8100244E50F8040C550274
:102F4000010E8DF80310010C8DF80410010A8DF8A4
:102F500005108DF806000B208DF807002946304635
:102F6000FEF700FF3220FEF749FD0C484FF47A735C
:102F700008226946343000F035F8002229463046F0
:102F8000FEF7F0FE12A004F0D5FC002020707CBDFE
:102F90000048004009000020004C004018020020BA
:102FA000726563657369766520304100726563659B
:102FB0007369766520304200343835CAD5B5BDCA4C
:102FC000FDBEDD0D0A000000E801002000100140F8
:102FD000343835B7B5BBD8D6B5D2D4B7A2CBCD0D22
:102FE0000A0000002DE9F843044690F839001F4616
:102FF00016460D46202850D1A5B19EB194F8380050
:1030000001284AD0012084F838004FF00008C4F8A5
:103010003C80212084F83900FEF7AAFEA684814670
:10302000E68426E00120BDE8F883E08C401EE084C1
:10303000A0684B46B0F5805F4FF000024FF0800172
:103040002046009703D002F0C6F8E8B90DE002F080
:10305000C2F8C8B928882168C0F308004860206910
:1030600008B16D1C05E0AD1C03E0216815F8010BEB
:103070004860E08C0028D8D14B46002240212046F1
:10308000009702F0A8F808B10320CCE7202084F8CC
:10309000390084F838800020C5E70220C3E7704774
:1030A0002DE9F05F074600680D4600EB4114D4F8A7
:1030B00008054FF00409420701EB85004FF0050BAE
:1030C0004FF0100807EBC00608D5C4F80895D4F8EF
:1030D0000C0540F00200C4F80C0542E0D4F80805E5
:1030E000C0050DD54FF48070C4F80805072086F898
:1030F0005D00D4F80C0540F00200C4F80C0517E0A0
:10310000D4F80805800601D5202028E0D4F8080569
:103110004FF0080A00070FD5D4F80C0540F0020064
:10312000C4F80C0586F85DB0C4F80885C4F808A595
:10313000386804F0B2F914E0D4F80805400510D559
:10314000D4F80C0540F00200C4F80C05386804F00F
:10315000A4F9C4F8088586F85DA04FF48060C4F82F
:103160000805D4F8080580050ED5D4F80C0540F004
:103170000200C4F80C05294604F5A164386804F07F
:103180008CF94FF400709AE0D4F808054FF0000174
:10319000C0074FF0010239D086F85D20B165C4F850
:1031A000082596F83F0030B1022804D0032811D03A
:1031B000012818D023E0D4F80C0540F00200C4F830
:1031C0000C05294604F5A164386804F066F9C4F8D2
:1031D000008014E0D4F8000540F00050C4F8000569
:1031E00086F85C2007E086F85C2096F8500080F0B6
:1031F000010086F8500029463846FEF725FE16F8ED
:10320000500F80F001003070BDE8F09FD4F8080541
:1032100080073DD5D4F80C0520F00200C4F80C0559
:1032200096F85D00022301280AD005280BD0062855
:103230000CD008280AD0032819D007281AD01EE07D
:1032400086F85C201BE086F85CB018E0B06D401C8E
:10325000B06503280BD9B16586F85C90D4F80005F9
:1032600020F0804040F00040C4F8000507E086F8F8
:103270005C30F3E7B06D401CB06586F85C90C4F834
:10328000083596F85C2029463846FEF7DDFDBBE799
:10329000D4F80805000614D5D4F80C0540F0020057
:1032A000C4F80C05B06D2946401CB065062086F8B0
:1032B0005D0004F5A164386804F0EFF88020206018
:1032C000A2E7D4F80805C0069ED596F83F0003286B
:1032D00003D020B1022802D00FE0B16503E0032043
:1032E000B16586F85D00D4F80C0540F00200C4F822
:1032F0000C052946386804F0D0F8C4F8088583E73F
:103300002DE9F047026802EB4114D4F808254FF08C
:103310000403520709D5C4F80835D4F80C0540F069
:103320000200C4F80C05BDE8F087D4F8082501EBCD
:10333000810596064FF0000200EBC5054FF0020C28
:1033400015D52023C4F8083595F83D30012BEAD176
:1033500085F83D2085F85CC0D4F80C2542F00202C7
:10336000C4F80C250068BDE8F04704F096B8D4F81E
:10337000086577064FF0010611D585F85D3085F8B0
:103380003D60AA65D4F80C2542F00202C4F80C2571
:10339000006804F5A16404F080F8402010E0D4F83F
:1033A0000875BF050ED5D4F80C2542F00202C4F80A
:1033B0000C25006804F5A16404F06FF84FF4007068
:1033C0002060B0E7D4F80875FF070FD0AA65D4F8DD
:1033D0000C2542F00202C4F80C25006804F5A16433
:1033E00004F05BF8266085F85D609CE7D4F808750A
:1033F0004FF0050A5FEA07784FF008070DD5C4F8CB
:103400000875D4F80C2542F00202C4F80C250068B7
:1034100004F043F885F85DA085E7D4F808854FF0FF
:1034200010095FEAC86810D5AA65032285F85D20F7
:10343000D4F80C2542F00202C4F80C25006804F50B
:10344000A16404F02AF84846BAE7D4F808855FEA90
:1034500008680FD5D4F80C2542F00202C4F80C25F8
:10346000006804F5A16404F018F8062085F85D00F2
:103470008020A5E7D4F808855FEA485812D5D4F82B
:103480000C2542F00202C4F80C25006804F5A16482
:1034900004F003F8C4F800904FF48060206085F8D1
:1034A0005D7040E7D4F80875BF078AD5D4F80C756D
:1034B00027F00207C4F80C7595F85D70012F0AD04B
:1034C000032F17D0042F15D0052F16D0062F17D095
:1034D000082F15D027E085F85C6095F83F20022A78
:1034E00001D0032A1FD195F8512082F0010285F8FE
:1034F000512018E085F85CC015E085F85CA012E06A
:10350000AE6D761CAE65032E03D9AA6585F85C30D6
:1035100001E085F85CC0D4F8002522F0804242F03A
:103520000042C4F80025C4F808C595F85C20FEF7F1
:103530008BFCF8E67CB504680546D4F8400401909D
:10354000D4F8400420F02E0000900198800709D59F
:103550000198C00702D02846FEF710FC009840F002
:10356000020000900198000724D5009840F0080060
:103570000090019840071AD5A869022803D0E8688E
:1035800001280CD00FE00198C0F3414002282868C0
:1035900003D0012104F020F905E00221FAE74EF6FC
:1035A0006020C4F804042846FEF78AFD02E028469D
:1035B000FEF782FD01988006009802D540F02000B9
:1035C0000090C4F840047CBD2DE9F041024600683B
:1035D0000646016AC1F3434301F00F07C1F30A1421
:1035E000022B25D1002C23D007EB870102EBC1056C
:1035F000696C00291CD0224604F00DF9686C204447
:103600006864E86C2044E86406EB4710D0F81015B5
:10361000084A11420CD0D0F8001521F0804141F049
:103620000041C0F8001515F8500F80F00100287017
:10363000BDE8F0810000F81FFEE700002DE9F84F1B
:10364000A4480078012870D1A34EA44D0124B0787D
:10365000C8B92968A5F18E000A0E82710A0CC271E0
:103660000A0A02724172E9684FF47A730A0E827292
:103670000A0CC2720A0A027341730146102298486A
:10368000FFF7B0FCB47097490020B0460870964927
:10369000DFF86C92DFF86CA2087094499A4FDFF85B
:1036A0006CB208709249087092490870924908708B
:1036B00089497070964EC870904811210078012891
:1036C00034D0022831D1934864230A220171202189
:1036D000417100218171C47101468148FFF782FC6C
:1036E0003C78002C7DD0601EC0B200908A48D0F893
:1036F0000710807A09BA21F0FF070743584600EB0C
:103700008400DFF81CB240F8047C84480BEB840191
:1037100000EB440030F8020C41F8040C98F800105B
:10372000012972D0022976D090E0D1E07948642353
:103730000A2201711F21417100218171C47101466A
:103740006748FFF74FFC3C78002C4AD0601EC0B29F
:1037500000907148D0F80710807A09BA21F0FF076D
:10376000074309EB84000AEB840140F8047C6B48B2
:1037700000EB440030F8020C41F8040C98F80010FB
:10378000012902D0022907D022E0654901EB84011A
:1037900051F8041C401A05E0614901EB840151F81D
:1037A000041C081AFCF7DEFE80460BEB840050F880
:1037B000040C381AFCF7D6FE4146FCF77CFD59494B
:1037C000FCF747FDFCF7E8FE06EB840141F8040C2A
:1037D000554C2A2241492046FDF7DAFA4A48017839
:1037E00000E05AE009EB810050F8042C0098C0EB8F
:1037F000C00045F820200AEB810205EB800052F85A
:10380000042C42603AE000E005E00AEB840151F844
:10381000041C081A04E00AEB840151F8041C401A45
:10382000FCF7A0FE804609EB840050F8040CC01B96
:10383000FCF798FE4146FCF73EFD3A49FCF709FDCE
:10384000FCF7AAFE06EB840141F8040C364C2A2250
:1038500022492046FDF79CFA2B482C4A017802EBBE
:10386000810050F8042C0098C0EBC00005EB8000EC
:10387000C2600BEB810252F8042C026106EB81015D
:1038800051F8041C81602046FDF7C3F92A22134930
:103890002046FDF789FAFEF717F94FF4FA75284626
:1038A000FEF7ACF81B4C02206423E0710A2221468B
:1038B0000B48FFF797FB2846FEF7A0F80025E571B7
:1038C00064230A2221460648FFF78CFB0B4805704B
:1038D000BDE8F88F150000201C000020DC0B002044
:1038E0000C030020190000200C000020160000200E
:1038F0000F000020100000201300002018000020FE
:103900004C030020C40300201700002064030020A3
:10391000AC030020880A002000020020880100205B
:10392000DC03002000247449000801082DE9F05F41
:10393000D5480078012876D1D4494FF00009DFF846
:103940005CA381F80090D249D54A484681F800909E
:10395000D049DFF854B3D54D81F80090CE49DFF857
:103960005083D44E81F800908AF801908AF8029032
:1039700082F80090CB4A002482F800908AF8030075
:10398000CD48052350F824705BF82400391A91FBC8
:10399000F3F256F82410884207DA00EB020C614576
:1039A00003DA012028F814002CE000EB020C8C450F
:1039B00005DA00EB420C8C4501DD022114E000EB3E
:1039C000420C8C4506DA02EB420C84448C4501DD46
:1039D000032109E002EB420C84448C4507DA00EB3A
:1039E000820C8C4503DD042128F814100AE000EB5A
:1039F0008200884204DAB94202DA28F8143001E081
:103A000028F8149038F8141005EB44070A0ABA7124
:103A1000F971AA4940460978022905D004292AD01B
:103A2000062953D070E02DE10188E9B1B8F8020011
:103A3000D0B100220121A248FEF794F9012204210D
:103A40009F48FEF78FF9012C5EDD87F8069006206F
:103A5000F87105EB840080F8129080F8139080F8DC
:103A6000149080F815904FE0012211469448FEF71B
:103A700079F90022E3E7018809B34188F9B1818827
:103A8000E9B1B8F80600D0B1002201218C48FEF758
:103A900069F9012204218A48FEF764F9032C33DD19
:103AA00087F806900621F97105EB840181F81290E0
:103AB00081F8139081F8149081F8159024E0012288
:103AC00011467F48FEF74EF90022E3E701880029FE
:103AD0007ED0418800297BD08188002978D0C18898
:103AE000002975D00189002972D0B8F80A00002891
:103AF0006ED0734F002201213846FEF733F90122C0
:103B000004213846FEF72EF9641C062CFFF638AF68
:103B10006C48007858B3FDF719F86B48634C55466C
:103B20000C3C40786071DAF81000010EA17167A0BA
:103B300003F000FF2869C0F30741E17163A003F0BF
:103B4000F9FE288AC0F30721217260A003F0F2FE7B
:103B5000297C61725EA003F0EDFE4FF4FA630C2243
:103B600021465D48FFF73EFA3220FDF747FF5BA094
:103B700003F0E0FE4FF47A732C224C495648FFF7CD
:103B800031FA3220FDF73AFF57480078012879D101
:103B900056A003F0CFFEDFF814A14FF0110BAAF1ED
:103BA000160A1E218AF804B08AF805108AF80690D1
:103BB00001218AF807104F464FF47A730A225146C2
:103BC0004548FFF70FFA1F220AF1D8014A4800E0E2
:103BD00018E0FDF7DDF849A003F0ACFE0AF1D808C3
:103BE000D8F8780000EB400045001F2D02D30025D7
:103BF000C8F87870294644A003F09CFEB1462C46D4
:103C0000AE1D11E02E4F012211463846FEF7AAF8EC
:103C1000002275E7611B3FA059F8212048F82420B5
:103C2000214603F087FE641CB442F3DBD8F8781019
:103C3000491CC8F87810052901D1C8F878702E4CB5
:103C40002046FCF7E6FF19491F22C2312046FDF746
:103C5000ABF8FDF739FF4FF4FA70FDF7CFFE8AF8A5
:103C600004B01E218AF8051010498AF806708AF8F7
:103C700007704FF47A730A2216391748FFF7B2F922
:103C800019480770BDE8F09F0F00002019000020C0
:103C90000C00002015000020160000201C00002051
:103CA0001700002018000020940300209E0A002026
:103CB000DC010020E80100207C0300200D00002032
:103CC0000010014010000020110000202578200085
:103CD0002578200D0A0000000C030020B7A2CBCDF0
:103CE000CAFDBEDD0D0A000013000020B1A3B4E63A
:103CF000CAFDBEDD0D0A000000000108B6C1B3F622
:103D0000CAFDBEDD000000006B203D2025640D0AC9
:103D100000000000466C6173685F536176655F6404
:103D20006174615B25645D203D2025640D0A0000FF
:103D300070B51948007801282DD118480024204D6D
:103D40000470174804701748047017480470174827
:103D50000470174804701748047017480470174817
:103D600044708470C4702878002814D0154811213C
:103D7000124A017122214171921D134914704FF4AE
:103D80007A73097851708471C17101460A220F4813
:103D9000FFF728F92C7070BD0C00002019000020DE
:103DA0000F00002015000020160000201000002049
:103DB0001300002017000020180000201C00002025
:103DC0000E000020880A00200D0000200C030020B7
:103DD0002DE9F04700226349634804F05FFD18B104
:103DE000FCF728FF61A09DE00A226EA1724804F052
:103DF00083FD18B1FCF71EFF70A093E07F4E1127E2
:103E00004FF02108377186F805804FF0000986F8D9
:103E100006900120F0714FF47A7A53460A22314617
:103E20007748FFF7DFF84FF4FA70FDF7E7FD75A26A
:103E300077A1614804F036FE002506F1D80400BFE2
:103E400054F8252073A15C4804F02CFE6D1CEDB2E3
:103E5000052DF5D370A15848626904F023FE70A2C5
:103E60006BA1554804F01EFE5FF0060569A154F8E9
:103E70002520514804F016FE6D1CEDB20B2DF5D334
:103E800065A14D48E26A04F00DFE68A260A14A48AF
:103E900004F008FE5FF00C055EA154F825204648AA
:103EA00004F000FE6D1CEDB2112DF5D35AA142486D
:103EB000626C04F0F7FD60A255A13F4804F0F2FDEA
:103EC0005FF0120553A154F825203B4804F0EAFDA9
:103ED0006D1CEDB2172DF5D34FA13748E26D04F0FC
:103EE000E1FD58A24AA1344804F0DCFD5FF018055A
:103EF00048A154F82520304804F0D4FD6D1CEDB2E3
:103F00001D2DF5D344A12C48626F04F0CBFD50A0C9
:103F100003F010FD0021284804F07EFB30B1FCF7CF
:103F200089FE4EA0BDE8F04703F004BD4FA003F0AA
:103F300001FD214804F05AFB54465046FDF75EFD52
:103F4000377186F8058086F806900220F0712346C6
:103F50000A222A492A48FFF745F8BDE8F0476420BD
:103F6000FDF74CBD05000020940C0020665F6D6FCE
:103F7000756E7428265553424846617446532C2862
:103F8000544348415220636F6E73742A295553423B
:103F900048506174682C203029213D2046525F4FE3
:103FA0004B0D0A00486973746F72795F4441544144
:103FB0002E54585400000000C40E0020665F6F703D
:103FC000656E28265553424846696C652C53544DFE
:103FD00033322E5458542C46415F43524541544588
:103FE0005F414C574159537C46415F5752495445B4
:103FF00029213D2046525F4F4B0D0A00880A0020C0
:104000000C030020B5DAD2BBD7E9CAFDBEDD000043
:1040100025732000256420002564200D0A0000007F
:10402000B5DAB6FED7E9CAFDBEDD0000B5DAC8FDD7
:10403000D7E9CAFDBEDD0000B5DACBC4D7E9CAFDB9
:10404000BEDD0000B5DACEE5D7E9CAFDBEDD000071
:10405000D0B4C8EBCEC4BCFE0D0A0000CAFDBEDD64
:10406000B5BCB3F6B4EDCEF30D0A0000B9D8B1D5A6
:10407000D3C5C5CC0D0A0000FEB500242A48009423
:104080000194284902940160891581600125057316
:104090000475062606614FF460214460C161FDF796
:1040A0001FF908B1FCF7C6FDCDE9004569461E4879
:1040B0000294FDF793F808B1FCF7BCFD0220CDE9AE
:1040C000005069461848FDF789F808B1FCF7B2FDC1
:1040D00004250320CDE9005069461348FDF77EF81A
:1040E00008B1FCF7A7FD052469460F48CDE9004556
:1040F000FDF774F808B1FCF79DFDCDE90064694651
:104100000948FDF76BF808B1FCF794FD0720CDE9ED
:10411000000669460448FDF761F8002801D0FCF765
:1041200089FDFEBD002401409C000020094808B51F
:10413000416941F0010141614069002200F0010044
:10414000009011460B20FEF765F8BDE808400B20F3
:10415000FEF753B80010024010B504490448FCF7BC
:104160006AFD0249491E087010BD000005000020CC
:104170005C9F000870B586B000241C480094019430
:1041800002940394816941F020018161816901F009
:1041900020010491816941F010018161816901F080
:1041A00010010491816941F004018161816901F08C
:1041B00004010491816941F00801816180690C4E1C
:1041C00000F0080040F20F250490002229463046F6
:1041D000FDF7C8FD01200095CDE901040220039000
:1041E00069463046FDF7CEFC06B070BD00100240B7
:1041F000001001400C4810B50A4901604FF41651F7
:104200004160002181600C22C160C0E9041281611B
:10421000C161FEF737FD002803D0BDE81040FCF770
:1042200009BD10BD004C00404C0200200C4810B5E8
:104230000A4901604FF4E1314160002181600C22A4
:10424000C160C0E904128161C161FEF71BFD002855
:1042500003D0BDE81040FCF7EDBC10BD005000409D
:104260008C0200200C4810B50A4901604FF4E1317E
:104270004160002181600C22C160C0E904128161AB
:10428000C161FEF7FFFC002803D0BDE81040FCF739
:10429000D1BC10BD00440040CC0200200C4810B539
:1042A0000A4901604FF4E1314160002181600C2234
:1042B000C160C0E904128161C161FEF7E3FC00281E
:1042C00003D0BDE81040FCF7B5BC10BD004800406D
:1042D0000C03002010B501220B490C4801F022FB11
:1042E00008B1FCF7A7FC0A49084802F015FE08B11E
:1042F000FCF7A0FC054802F0F1FE002803D0BDE861
:104300001040FCF797BC10BDF1700008F4030020CA
:1043100058000020014802F015BC0000F403002002
:10432000FEE770470148FDF7D9BD0000C407002033
:10433000704770472DE9F04F5849594885B00B78C0
:1043400003704D784570052181708221C1700D2266
:1043500002720A2444721630272603704570867054
:10436000C170112606714FF0000880F8058080F8B2
:104370002A2080F82B400C3807270370457087707F
:10438000C17006718272C47238307F270370457025
:104390008770C17006713026467180F8822080F8DF
:1043A00083408430037045700B238370C1701021EB
:1043B0000171222141718273C47300F18E012A229E
:1043C0003848FCF7E5FCDFF8E0A0DFF8E0B0DFF804
:1043D000E0900024C4EBC4010AEB81005AF82120CC
:1043E00034494BF82420436841F824308568324929
:1043F00049F82450C66841F8246030490769DFF85D
:10440000C0C041F8247041694CF82410DFF8B4C0F2
:1044100080694CF82400CDE903108DE8E0002146C6
:1044200029A003F087FA641CE4B2062CD2D31E49FB
:104430000422A8312C48FCF7ABFC2C4C01220221B1
:104440002046FDF78FFC002261152046FDF78AFC0F
:104450002749404681F80080264981F80080264996
:1044600081F80080254981F80080254981F8008085
:10447000244981F80080244981F80080234981F88B
:1044800000802349087023490870234908700349B4
:10449000091FC87005B0BDE8F08F000020000020A3
:1044A000880A002000080108DC0B00204C030020D3
:1044B000AC030020C403002064030020DC030020C0
:1044C0007C03002094030020444154412564A3BA96
:1044D000256420256420256420256420256420256A
:1044E000642025640D0A000000100108001001403E
:1044F0000C000020190000200F00002015000020F3
:1045000016000020140000201000002013000020DE
:1045100017000020180000200E000020FDF704BE48
:1045200070B59CB038216846FBF788FE142116A8A8
:10453000FBF784FE20210EA8FBF780FE0125002456
:104540002804CDE902040226CDE90860009505950E
:1045500001944FF4E010CDE90A046846FEF702F931
:104560000F20CDE91606A802CDE91840022116A8B1
:104570001A94FDF7E3FF12200E90E80315941090B3
:104580000EA8FDF717FF024805671CB070BD0000BC
:10459000000042421048016841F001010160416899
:1045A0000E4A1140416001680D4A114001600168E6
:1045B00021F480210160416821F4FE01416001681D
:1045C00021F0A05101604FF47F0181600021C162A0
:1045D0000449C00308607047001002400000FFF06B
:1045E000FFFFF6FE08ED00E02DE9F05FF8480078E7
:1045F00001286ED1F74EF84D0024F8A0315D03F08C
:1046000099F9305D5A2819D0641C0B2CF5DB002475
:10461000F3A0295D03F08EF9641C0A2CF8DB2879DD
:10462000F04CDFF8C493F14EDFF8C4A3DFF8C48385
:104630000127DFF8C4B310280BD037E00020C4F105
:104640000B0103E02218B25C2A54401C8142F9DCC1
:10465000DDE7687980BBE9A003F06CF9ED48EE492D
:10466000077000200870ED4989F800000870EC49D7
:104670000870307088F800008AF800008BF800009D
:10468000D84821781430012904D0022904D0032904
:1046900004D112E0122100E013214172D1494FF4FC
:1046A0007A730A221431DF48FEF79CFC287911281E
:1046B00005D0102813D04BE311E01421EDE7687901
:1046C000702804D0722805D0742805D0F3E727702D
:1046D000F1E7FCE3022000E003202070EBE76879BB
:1046E00026280AD1D0A003F025F9D6490220087067
:1046F000D548077028791028DDD1687928280AD193
:10470000D2A003F017F9CF4904200870CE480770F3
:1047100028791028CFD168792A280AD1D2A003F0AD
:1047200009F9C84906200870C74807702879102879
:10473000C1D1A948D34D407902282CD1D2A003F091
:10474000F9F8B648B34A394607701120287000209E
:104750001070B14A1070B24A89F8000010703070C1
:1047600088F800008AF800008BF80000CCA003F065
:10477000E1F83178D3A003F0DDF898F80010D6A066
:1047800003F0D8F8A4480178D8A003F0D3F89248F1
:10479000007910288FD1904840790A280ED1D8A0EE
:1047A00003F0C8F889F80070122068700020A0603B
:1047B000DB48E06088480079102887D18648407936
:1047C0000C280FD1D7A003F0B5F8022089F800001B
:1047D000142068700020A060D148E0607E48007915
:1047E000102889D17C4840790E280FD1D3A003F03E
:1047F000A1F8032089F80000162068700020A0604E
:10480000C748E06074480079102891D17248407917
:1048100010280FD1CFA003F08DF8042089F80000F4
:10482000182068700020A060BD48E0606A480079E8
:104830001028AFD16848407912280FD1CBA003F0DF
:1048400079F8052089F800001A2068700020A0601F
:10485000B348E0606048007910289BD15E484079F9
:1048600014280FD1C7A003F065F8062089F80000CE
:104870001C2068700020A060A948E06056480079BC
:10488000102887D1544C60792C2807D1C3A003F09D
:1048900051F863480770207910288ED14E4840792E
:1048A000042828D1C3A003F045F85A4837700021E6
:1048B000594C01705948217089F80010017058480E
:1048C0004546017088F800108AF800108BF8001037
:1048D00073A003F02FF831787AA003F02BF8297831
:1048E0007DA003F027F8217880A003F023F83A4850
:1048F0000079102889D138484079062828D1B3A0FA
:1049000003F018F8434888F800700021424D017008
:104910004248297089F800100170414844460170EE
:1049200031708AF800108BF800105DA003F002F8D7
:10493000317864A002F0FEFF217867A002F0FAFF50
:1049400029786AA002F0F6FF23480079102884D164
:104950002148A44D4079A5F18E04162832D1A2A099
:1049600002F0E8FF8AF800703078012804D098F847
:10497000000001280AD021E02868010EA171010C75
:10498000E171010A21726072E86808E06869010E4D
:10499000A171010CE171010A21726072A8694FF4E2
:1049A0007A73010EA172010CE172010A21738D4923
:1049B000607310228E391B48FEF714FB06480079FD
:1049C000102897D104484079182800D11AE14CE109
:1049D0000B0000200B0200200002002025782000A0
:1049E000202578001C000020100000201500002069
:1049F0001700002016000020180000205F5F5F5F96
:104A0000BDF8C8EBCAD7D2B35F5F5F5F5F5F5F0D72
:104A10000A0000000C000020190000200F000020F8
:104A2000130000200C0300205F5F5F5FD1A1D4F171
:104A3000C1BDB8F6CDA8B5C05F5F5F5F5F5F0D0A0F
:104A4000000000000D0000200E0000205F5F5F5F8F
:104A5000D1A1D4F1CBC4B8F6CDA8B5C05F5F5F5F7C
:104A60005F5F0D0A000000005F5F5F5FD1A1D4F1BE
:104A7000C1F9B8F6CDA8B5C05F5F5F5F5F5F0D0A93
:104A800000000000110000205F5F5F5FBDF8C8EB11
:104A9000B2E2C1BFBDE7C3E65F5F5F5F5F0D0A00C3
:104AA0004C43445F53686F775F5265616C5F746914
:104AB0006D655F646174615F36203D2025640D0A79
:104AC000000000004C43445F4A69616F7A68756E6C
:104AD000203D2025640000004C43445F476F6E6713
:104AE000636861203D2025640D0A00004C43445F4B
:104AF00044616F636875203D2025640D0A00000045
:104B00005F5F5F5F5F5F20CFD4CABECDA8B5C0D264
:104B1000BBD4B2B6C8205F5F5F5F5F5F0D0A000065
:104B200040420F005F5F5F5F5F5F20CFD4CABECDA2
:104B3000A8B5C0B6FED4B2B6C80D0A005F5F5F5F0D
:104B40005F5F20CFD4CABECDA8B5C0C8FDD4B2B671
:104B5000C80D0A005F5F5F5F5F5F20CFD4CABECD24
:104B6000A8B5C0CBC4D4B2B6C80D0A005F5F5F5F02
:104B70005F5F20CFD4CABECDA8B5C0CEE5D4B2B653
:104B8000C80D0A005F5F5F5F5F5F20CFD4CABECDF4
:104B9000A8B5C0C1F9D4B2B6C80D0A005F5F5F5FA7
:104BA0005F5F20B1A3B4E6B4CBD7E9CAFDBEDD0D8B
:104BB0000A0000005F5F5F5F5F5F20BDF8C8EBD059
:104BC000A3D7BCBDE7C3E60D0A0000005F5F5F5FCF
:104BD0005F5F20BDF8C8EBB9ABB2EEBDE7C3E60D31
:104BE0000A000000DC0B00205F5F5F5F5F5F20D189
:104BF000A1D4F1CDA8B5C0D2BBBDF8D0D0C9E8D6FC
:104C0000C30D0A00B9A002F095FE02208AF8000048
:104C10003078012804D098F8000001280AD020E05C
:104C2000E869010EA171010CE171010A2172607243
:104C3000A86A08E0286B010EA171010CE171010A5C
:104C400021726072686B4FF47A73010EA172010CCD
:104C5000E172010A217360731022AB49AB48FEF781
:104C6000C1F9AB480079102872D1A94840791A28B7
:104C700032D1A8A002F05EFE03208AF8000030784E
:104C8000012804D098F8000001280AD020E0A86B81
:104C9000010EA171010CE171010A21726072686C50
:104CA00008E0E86C010EA171010CE171010A2172AA
:104CB0006072286D4FF47A73010EA172010CE172DB
:104CC000010A2173607310228F499048FEF78AF918
:104CD0008F4800791028C7D18D4840791C2832D1DF
:104CE00093A002F027FE04208AF800003078012803
:104CF00004D098F8000001280AD020E0686D010E69
:104D0000A171010CE171010A21726072286E08E044
:104D1000A86E010EA171010CE171010A217260728D
:104D2000E86E4FF47A73010EA172010CE172010A70
:104D300021736073102274497448FEF753F9744864
:104D40000079102890D1724840791E2836D100E0B1
:104D5000C7E07EA002F0EEFD05208AF80000307862
:104D6000012804D098F8000001280AD022E0286F1A
:104D7000010EA171010CE171010A21726072E86FEC
:104D80000AE0D5F88400010EA171010CE171010A5D
:104D900021726072D5F888004FF47A73010EA17207
:104DA000010CE172010A21736073102256495748C1
:104DB000FEF718F95648007910288CD154484079EC
:104DC000202834D168A002F0B5FD06218AF8001031
:104DD0003078012804D098F8000001280BD022E098
:104DE00055F88C0F010EA171010CE171010A2172BD
:104DF0006072E86809E055F8A00F010EA171010C7E
:104E0000E171010A2172607268684FF47A73010ED1
:104E1000A172010CE172010A2173607310223A49F8
:104E20003A48FEF7DFF83A480079102859D1384C53
:104E30006079222810D153A002F07CFD0025615D2D
:104E4000AFF2644002F076FD6D1C0B2DF7DB8BF8A2
:104E500000702079102844D16079242811D14FA006
:104E600002F068FD02208BF800000025615DAFF2C2
:104E7000904002F05FFD6D1C0B2DF7DB20791028B0
:104E80002FD1607908282CD14AA002F053FD4E485A
:104E90004E4C002107704E482770454601704D4822
:104EA00089F8001001704C480170317088F80010CA
:104EB0008AF800108BF80010AFF21C4002F03AFDA7
:104EC0003178AFF2004002F035FD297800E00BE0C8
:104ED000AFF2FC3002F02EFD2178AFF2F03002F09C
:104EE00029FD3E4800210170BDE8F09F5F5F5F5FD4
:104EF0005F5F20D1A1D4F1CDA8B5C0B6FEBDF8D07A
:104F0000D0C9E8D6C30D0A004E0B00200C030020C8
:104F1000000200205F5F5F5F5F5F20D1A1D4F1CD11
:104F2000A8B5C0C8FDBDF8D0D0C9E8D6C30D0A00E9
:104F30005F5F5F5F5F5F20D1A1D4F1CDA8B5C0CB2B
:104F4000C4BDF8D0D0C9E8D6C30D0A005F5F5F5F6B
:104F50005F5F20D1A1D4F1CDA8B5C0CEE5BDF8D01A
:104F6000D0C9E8D6C30D0A005F5F5F5F5F5F20D1E5
:104F7000A1D4F1CDA8B5C0C1F9BDF8D0D0C9E8D64B
:104F8000C30D0A005F5F5F5F5F5F20BDF8D0D0C9CF
:104F9000CFCFDED0A3D7BC0D0A0000005F5F5F5FFC
:104FA0005F5F20BDF8D0D0CFC2CFDED0A3D7BC0D7D
:104FB0000A0000005F5F5F5F5F5F20CAFDBEDDB576
:104FC000BCB3F60D0A0000001400002019000020F8
:104FD0000C0000200F000020130000200B00002018
:104FE0000148FDF7C7BD00004C0200200148FDF755
:104FF000C1BD00008C02002010B5406A0021C185AF
:10500000C184FDF7B5FD10BD0168CA6822F4907235
:10501000CA6001684A6922F001024A61202180F8D1
:105020003A10704710B590F83A10222901D00220AA
:1050300010BD8168B1F5805F11D001690029016858
:105040001FD0496801F07F03816A4A1C82620B709D
:10505000C18D491E0904090CC18518D02BE00269D5
:10506000816A002A0268526805D0D2B20A80816A39
:10507000491C8162ECE7C2F308020A80816A891C3C
:10508000F7E74A68816A4B1C83620A70E0E70168AF
:10509000CA6822F02002CA600168CA6822F48072DD
:1050A000CA6001684A6922F001024A61202180F841
:1050B0003A10FDF70FFF002010BD00002DE9F04170
:1050C000044600680169E26821F44051114301611E
:1050D0002169A0680843616908432168CA6841F2F0
:1050E0000C639A430243CA6020684169A26921F4B3
:1050F0004071114341611E4920686425322688426F
:1051000002D1FDF7C1FA01E0FDF7AEFA00EBC001F4
:1051100001EB001160686FF018078000B1FBF0F23E
:10512000B2FBF5F2B1FBF0F37A4303EB8202B1FB81
:10513000F0F306EB0212B2FBF5F2B3FBF5F302F06B
:10514000F00202EB0312B1FBF0F3B1FBF0F0B0FBA5
:10515000F5F0784303EB800006EB0010B0FBF5F0B0
:10516000216800F00F0010448860BDE8F081000065
:105170000038014090F83910212901D002207047F1
:105180008168B1F5805F016A0BD04A1C0262026837
:1051900009785160C18C491E0904090CC1840ED0E4
:1051A00017E009880268C1F308015160016900290C
:1051B000016A02D0491C0162ECE7891CFBE7016827
:1051C000CA6822F08002CA600068C16841F04001EC
:1051D000C160002070472DE9F041984617460E4601
:1051E0000446069D1DE0681C1BD02DB1FCF7C0FDD8
:1051F000A0EB0800A84214D92068C16821F4D0713E
:10520000C1602068416921F001014161202084F8DA
:10521000390084F83A00002084F838000320BDE803
:10522000F0812068006836EA000004D00020B8420F
:10523000D9D00020F3E70120F9E700000148FDF78D
:1052400099BC00000C03002010B500224FF6FF733C
:1052500000EB8204B4F8804324040BD49A4207D0B4
:1052600002F00F0300EB830041F40041C0F880130B
:10527000D0B210BD521CD2B20B2AE9D31A46F7E7BE
:105280007FB51C46012501AE0023009586E80E007F
:1052900002232A46214600F04DFC04B0002070BDD8
:1052A0007FB51D4690F81D33089C03B100240123EF
:1052B000CDE90031CDE9022402230022294600F085
:1052C00039FC04B0002070BD10B500F063FB002075
:1052D00010BD8278012A07D1022202740122427491
:1052E000002242828182C2820022114600F00FB861
:1052F0007FB51C46012501AE0023009586E80E000F
:105300002A46214600F016FC04B0002070BD70B59E
:1053100004460120A3780546012B0CD0022B09D1AD
:10532000204600F015F9002158B1032809D00228C1
:1053300000D1A57070BDA160A28125760221A17067
:1053400070BDA570217670BD7FB51D4690F81D33E8
:10535000089C03B100240123CDE90031CDE90224EA
:1053600000231A46294600F0E5FB04B0002070BD7A
:105370001FB500231446CDE900310822CDE90223F0
:105380001A46214600F0D6FB04B0002010BDFCF701
:1053900035BB000070B50546002005F2363500BF6C
:1053A00000EB800404EBC00405EB4404E67B0A3404
:1053B0008E4201D0FF2909D1A679964201D0FF2A59
:1053C00004D1E4799C4206D0FF2B04D0401CC0B22B
:1053D0000228E5D3FF2070BD0B2907D200EB810026
:1053E000B0F88013C1F30E01C0F88013002070479D
:1053F00030B48578029C012D0FD141F080010174F9
:105400000621417403214282B1EB122F02D140F2F6
:10541000094100E000218182C482224630BC194645
:10542000FFF775BF0A8803781A440A800178084498
:105430007047F8B50E4600F11C05009104462B4656
:105440004FF400720021FFF7D3FF070005D1324669
:10545000294604F2363001F006FB3846F8BD38B56F
:105460000D460091044600F58E734FF480720021C2
:10547000FFF7BEFF002839D194F81C1184F82413DB
:1054800094F81D1184F82513B4F81E11A4F82613FE
:1054900094F8201184F8281394F8211184F8291322
:1054A00094F8221184F82A1394F8231184F82B130A
:1054B000082D1BD9B4F82411A4F82C13B4F8261124
:1054C000A4F82E13B4F82811A4F8301394F82A1174
:1054D00084F8321394F82B1184F8331394F82C11B8
:1054E00084F8341394F82D1184F8351338BDF8B5C9
:1054F0001C461646009341F4407200F58E731D461B
:105500000021FFF775FF002814D16978032911D114
:1055100029788A1EA24200D814460021A2B2AD1CEE
:1055200004E06B5C891C06F8013B89B29142F8D318
:1055300000213170F8BD01004FF0000004D00129B6
:1055400001D0022901D002207047012070470000DD
:105550002DE9F84F0125017E04460B260927284630
:105560004FF007084FF0050A4FF00D090C2919D22A
:10557000DFE801F0B5060E26313C48606B7C899A65
:10558000627904F110012046FFF7F2FE022012E0DA
:105590006179204600F052FA012804D0042871D025
:1055A00002287FD09BE0207CE18A00F0800021B1BE
:1055B00080283AD10320207691E0802814D02EE074
:1055C000D4F8C003E0812379A2892046A168FFF7BF
:1055D0008FFE0420EFE72179204600F02FFA012802
:1055E00002D0052840D056E0277678E00090637915
:1055F000A2892046A168FFF7A7FED4F8C003E08186
:105600000620D8E76179204600F018FA012806D074
:10561000052807D0022808D0042809D05FE084F8C4
:1056200018805CE00C2020761EE084F818A056E07C
:10563000267653E00022237911462046FFF758FED4
:10564000D4F8C003E0810820B5E72179204600F0B6
:10565000F5F9012804D0042824D0052804D03EE020
:1056600084F8189000253AE0032538E000900022E5
:10567000637911462046FFF767FED4F8C003E08146
:105680000A2098E70EE06179204600F0D7F901285A
:1056900004D00228A8D0042804D020E0002584F8F3
:1056A00018901CE026761AE0617E491CC9B261762A
:1056B000022902D82076A07011E0D4F8CC2306216C
:1056C000204690470025657606A002F033F907A032
:1056D00002F030F90FA002F02DF9257002252846BE
:1056E000BDE8F88F4552524F523A2000436F6E7416
:1056F000726F6C206572726F723A204465766963CE
:1057000065206E6F7420726573706F6E64696E676A
:10571000000000000A0000002DE9FE430126417848
:1057200000250446374600F58E78082956D2DFE872
:1057300001F0040F27565E68788F08212046FFF796
:105740008EFE00284AD194F82B03A07167702CE0DC
:1057500012212046FFF783FE0028F3D1B4F82E1360
:1057600047A002F0E7F849A002F0E4F8B4F82C13DF
:1057700047A002F0DFF845A002F0DCF802203EE08E
:105780000121204601F080FC002872D10220FFF7A1
:10579000FEFD394684F81C7340A002F0CBF83BA014
:1057A00002F0C8F803206070A07994F81D130091EE
:1057B000CDE9015094F81C3321798022204601F074
:1057C00048F9A07994F81D130091CDE9015094F89F
:1057D0001C3361790022204601F03BF949E00921A0
:1057E0002046FFF726FE002843D1042007E0B4F846
:1057F00038132046FFF71DFE00283AD105206070BF
:1058000037E094F83213062549B1FF23424620467B
:10581000FFF76DFE00282CD1414626A00DE02AA0FE
:1058200013E094F83313072571B1FF234246204655
:10583000FFF75DFEE8B9414628A002F07BF813A00F
:1058400002F078F8657014E028A002F073F8F6E72B
:1058500094F8341381B1FF2342462046FFF747FEF8
:1058600038B9414625A002F065F808A002F062F8B8
:1058700000263046BDE8FE8325A002F05BF8F4E781
:105880005049443A20257868000000000A000000D2
:105890005649443A2025786800000000416464724B
:1058A0006573732028232564292061737369676EEB
:1058B00065642E004D616E75666163747572657204
:1058C000203A2025730000004D616E756661637497
:1058D00075726572203A204E2F41000050726F643D
:1058E000756374203A2025730000000050726F64C5
:1058F000756374203A204E2F410000005365726991
:10590000616C204E756D626572203A20257300002F
:1059100053657269616C204E756D626572203A2024
:105920004E2F410070B50E46040018D084F8C423F1
:105930000025C4F87853C4F87C53FBF745F984F884
:10594000215384F81E5384F81F5384F820530EB15A
:10595000C4F8CC63204600F085F8002070BD05A097
:1059600001F0E8FF05A001F0E5FF09A001F0E2FF6A
:10597000022070BD4552524F523A2000496E766166
:105980006C696420486F73742068616E646C650094
:105990000A00000010B5D0F8C803FCF70AFABDE809
:1059A0001040FFF7C8BD012180F81E13002180F8C8
:1059B0001F1380F820130846704710B504460120D5
:1059C00084F81F03002084F81E0384F82103204676
:1059D00000F0A7F821792046FFF7FEFC6179204608
:1059E000FFF7FAFC002010BD10B5C820FCF706F840
:1059F000002010BDD0F8C803FCF7D5B910B50124BC
:105A0000D0F8C803FCF7C5F920B1012805D0022859
:105A100003D101E0002400E00224204610BDD0F8AC
:105A2000C80301EB810100EBC10090F83B1011B1FC
:105A300090F85000704790F851007047D0F8C803B4
:105A4000FCF7AAB9D0F8C013491CC0F8C0130178FC
:105A50000B2905D1D0F87813002901D089690847AE
:105A60007047000010B5044690F8C403012819D10E
:105A70000D484FF0A041C0F8C042C4F8C80301600F
:105A8000082181600121C1600021C161FCF7BEFADB
:105A900008B1FBF7CFF80448FCF778F90146204637
:105AA00000F023F8002010BDC4070020FEB508AFA9
:105AB00097E870008DE87000D0F8C803FCF78BF908
:105AC000BDE8FE40FFF737BD002180F82113704785
:105AD000012180F82113704710B5D0F8C803FCF7F6
